{
  "_format": "hh-sol-artifact-1",
  "contractName": "MarketFactory",
  "sourceName": "contracts/MarketFactory.sol",
  "abi": [
    {
      "inputs": [],
      "stateMutability": "nonpayable",
      "type": "constructor"
    },
    {
      "inputs": [
        {
          "internalType": "address",
          "name": "owner",
          "type": "address"
        }
      ],
      "name": "OwnableInvalidOwner",
      "type": "error"
    },
    {
      "inputs": [
        {
          "internalType": "address",
          "name": "account",
          "type": "address"
        }
      ],
      "name": "OwnableUnauthorizedAccount",
      "type": "error"
    },
    {
      "anonymous": false,
      "inputs": [
        {
          "indexed": true,
          "internalType": "uint256",
          "name": "id",
          "type": "uint256"
        },
        {
          "indexed": true,
          "internalType": "address",
          "name": "creator",
          "type": "address"
        },
        {
          "indexed": false,
          "internalType": "string",
          "name": "title",
          "type": "string"
        },
        {
          "indexed": false,
          "internalType": "uint256",
          "name": "endTime",
          "type": "uint256"
        },
        {
          "indexed": false,
          "internalType": "address",
          "name": "marketAddress",
          "type": "address"
        }
      ],
      "name": "MarketCreated",
      "type": "event"
    },
    {
      "anonymous": false,
      "inputs": [
        {
          "indexed": true,
          "internalType": "address",
          "name": "previousOwner",
          "type": "address"
        },
        {
          "indexed": true,
          "internalType": "address",
          "name": "newOwner",
          "type": "address"
        }
      ],
      "name": "OwnershipTransferred",
      "type": "event"
    },
    {
      "inputs": [],
      "name": "MIN_LIQUIDITY",
      "outputs": [
        {
          "internalType": "uint256",
          "name": "",
          "type": "uint256"
        }
      ],
      "stateMutability": "view",
      "type": "function"
    },
    {
      "inputs": [
        {
          "internalType": "string",
          "name": "",
          "type": "string"
        },
        {
          "internalType": "uint256",
          "name": "",
          "type": "uint256"
        }
      ],
      "name": "categoryToMarketIds",
      "outputs": [
        {
          "internalType": "uint256",
          "name": "",
          "type": "uint256"
        }
      ],
      "stateMutability": "view",
      "type": "function"
    },
    {
      "inputs": [
        {
          "internalType": "string",
          "name": "title",
          "type": "string"
        },
        {
          "internalType": "string",
          "name": "description",
          "type": "string"
        },
        {
          "internalType": "string",
          "name": "category",
          "type": "string"
        },
        {
          "internalType": "uint256",
          "name": "endTime",
          "type": "uint256"
        },
        {
          "internalType": "enum PredictionMarket.ResolutionType",
          "name": "resolutionType",
          "type": "uint8"
        }
      ],
      "name": "createMarket",
      "outputs": [
        {
          "internalType": "address",
          "name": "",
          "type": "address"
        }
      ],
      "stateMutability": "payable",
      "type": "function"
    },
    {
      "inputs": [],
      "name": "getAllMarkets",
      "outputs": [
        {
          "components": [
            {
              "internalType": "uint256",
              "name": "id",
              "type": "uint256"
            },
            {
              "internalType": "string",
              "name": "title",
              "type": "string"
            },
            {
              "internalType": "address",
              "name": "marketAddress",
              "type": "address"
            },
            {
              "internalType": "address",
              "name": "creator",
              "type": "address"
            },
            {
              "internalType": "uint256",
              "name": "endTime",
              "type": "uint256"
            },
            {
              "internalType": "string",
              "name": "category",
              "type": "string"
            }
          ],
          "internalType": "struct MarketFactory.MarketInfo[]",
          "name": "",
          "type": "tuple[]"
        }
      ],
      "stateMutability": "view",
      "type": "function"
    },
    {
      "inputs": [
        {
          "internalType": "string",
          "name": "category",
          "type": "string"
        }
      ],
      "name": "getMarketsByCategory",
      "outputs": [
        {
          "components": [
            {
              "internalType": "uint256",
              "name": "id",
              "type": "uint256"
            },
            {
              "internalType": "string",
              "name": "title",
              "type": "string"
            },
            {
              "internalType": "address",
              "name": "marketAddress",
              "type": "address"
            },
            {
              "internalType": "address",
              "name": "creator",
              "type": "address"
            },
            {
              "internalType": "uint256",
              "name": "endTime",
              "type": "uint256"
            },
            {
              "internalType": "string",
              "name": "category",
              "type": "string"
            }
          ],
          "internalType": "struct MarketFactory.MarketInfo[]",
          "name": "",
          "type": "tuple[]"
        }
      ],
      "stateMutability": "view",
      "type": "function"
    },
    {
      "inputs": [
        {
          "internalType": "uint256",
          "name": "",
          "type": "uint256"
        }
      ],
      "name": "markets",
      "outputs": [
        {
          "internalType": "uint256",
          "name": "id",
          "type": "uint256"
        },
        {
          "internalType": "string",
          "name": "title",
          "type": "string"
        },
        {
          "internalType": "address",
          "name": "marketAddress",
          "type": "address"
        },
        {
          "internalType": "address",
          "name": "creator",
          "type": "address"
        },
        {
          "internalType": "uint256",
          "name": "endTime",
          "type": "uint256"
        },
        {
          "internalType": "string",
          "name": "category",
          "type": "string"
        }
      ],
      "stateMutability": "view",
      "type": "function"
    },
    {
      "inputs": [],
      "name": "nextMarketId",
      "outputs": [
        {
          "internalType": "uint256",
          "name": "",
          "type": "uint256"
        }
      ],
      "stateMutability": "view",
      "type": "function"
    },
    {
      "inputs": [],
      "name": "owner",
      "outputs": [
        {
          "internalType": "address",
          "name": "",
          "type": "address"
        }
      ],
      "stateMutability": "view",
      "type": "function"
    },
    {
      "inputs": [],
      "name": "renounceOwnership",
      "outputs": [],
      "stateMutability": "nonpayable",
      "type": "function"
    },
    {
      "inputs": [
        {
          "internalType": "address",
          "name": "newOwner",
          "type": "address"
        }
      ],
      "name": "transferOwnership",
      "outputs": [],
      "stateMutability": "nonpayable",
      "type": "function"
    }
  ],
  "bytecode": "0x608060405234801561001057600080fd5b50338061003757604051631e4fbdf760e01b81526000600482015260240160405180910390fd5b61004081610046565b50610096565b600080546001600160a01b038381166001600160a01b0319831681178455604051919092169283917f8be0079c531659141344cd1fd0a4f28419497f9722a3daafe3b4186f6b6457e09190a35050565b6136a8806100a56000396000f3fe6080604052600436106200009d5760003560e01c80638da5cb5b11620000605780638da5cb5b1462000169578063b0772d0b1462000189578063b1283e7714620001a1578063c5a5341614620001da578063f2fde38b14620001ff57600080fd5b806321b77d6314620000a25780633cf5a0c314620000d3578063406ef2ef1462000103578063715018a6146200011b57806376e6caff1462000135575b600080fd5b348015620000af57600080fd5b50620000c067016345785d8a000081565b6040519081526020015b60405180910390f35b620000ea620000e436600462000cb5565b62000224565b6040516001600160a01b039091168152602001620000ca565b3480156200011057600080fd5b50620000c060015481565b3480156200012857600080fd5b506200013362000485565b005b3480156200014257600080fd5b506200015a6200015436600462000d6b565b6200049d565b604051620000ca919062000e00565b3480156200017657600080fd5b506000546001600160a01b0316620000ea565b3480156200019657600080fd5b506200015a620007b1565b348015620001ae57600080fd5b50620001c6620001c036600462000ec5565b6200097e565b604051620000ca9695949392919062000edf565b348015620001e757600080fd5b50620000c0620001f936600462000f39565b62000af8565b3480156200020c57600080fd5b50620001336200021e36600462000f82565b62000b39565b600067016345785d8a0000341015620002845760405162461bcd60e51b815260206004820152601e60248201527f496e73756666696369656e7420696e697469616c206c6971756964697479000060448201526064015b60405180910390fd5b6001805460009182620002978362000fb4565b91905055905060003482338a8a8989620002b96000546001600160a01b031690565b604051620002c79062000bfc565b620002d9979695949392919062000fdc565b6040518091039082f0905080158015620002f7573d6000803e3d6000fd5b506040805160c081018252848152602081018b81526001600160a01b038416928201929092523360608201526080810188905260a0810189905260028054600181018255600091909152815160069091027f405787fa12a823e0f2b7631cc41b3ba8828b3321ca811111fa75cd3aa3bb5ace81019182559251939450909290917f405787fa12a823e0f2b7631cc41b3ba8828b3321ca811111fa75cd3aa3bb5acf0190620003a69082620010ec565b5060408201516002820180546001600160a01b039283166001600160a01b03199182161790915560608401516003840180549190931691161790556080820151600482015560a08201516005820190620004019082620010ec565b505050600386604051620004169190620011b9565b90815260405190819003602090810182208054600181018255600091825291902001839055339083907fd2c244d6548f64fb0a906cee15eeb2428756dbe60646faab51d39ef8a6e515529062000472908c908a908790620011d7565b60405180910390a3979650505050505050565b6200048f62000b7d565b6200049b600062000bac565b565b60606000600383604051620004b39190620011b9565b90815260408051918290036020908101832080548083028501830190935282845291908301828280156200050757602002820191906000526020600020905b815481526020019060010190808311620004f2575b505050505090506000815167ffffffffffffffff8111156200052d576200052d62000c0a565b604051908082528060200260200182016040528015620005ac57816020015b620005986040518060c00160405280600081526020016060815260200160006001600160a01b0316815260200160006001600160a01b0316815260200160008152602001606081525090565b8152602001906001900390816200054c5790505b50905060005b8251811015620007a9576002838281518110620005d357620005d36200120c565b602002602001015181548110620005ee57620005ee6200120c565b90600052602060002090600602016040518060c00160405290816000820154815260200160018201805462000623906200105d565b80601f016020809104026020016040519081016040528092919081815260200182805462000651906200105d565b8015620006a25780601f106200067657610100808354040283529160200191620006a2565b820191906000526020600020905b8154815290600101906020018083116200068457829003601f168201915b505050918352505060028201546001600160a01b039081166020830152600383015416604082015260048201546060820152600582018054608090920191620006eb906200105d565b80601f016020809104026020016040519081016040528092919081815260200182805462000719906200105d565b80156200076a5780601f106200073e576101008083540402835291602001916200076a565b820191906000526020600020905b8154815290600101906020018083116200074c57829003601f168201915b5050505050815250508282815181106200078857620007886200120c565b60200260200101819052508080620007a09062000fb4565b915050620005b2565b509392505050565b60606002805480602002602001604051908101604052809291908181526020016000905b828210156200097557838290600052602060002090600602016040518060c00160405290816000820154815260200160018201805462000815906200105d565b80601f016020809104026020016040519081016040528092919081815260200182805462000843906200105d565b8015620008945780601f10620008685761010080835404028352916020019162000894565b820191906000526020600020905b8154815290600101906020018083116200087657829003601f168201915b505050918352505060028201546001600160a01b039081166020830152600383015416604082015260048201546060820152600582018054608090920191620008dd906200105d565b80601f01602080910402602001604051908101604052809291908181526020018280546200090b906200105d565b80156200095c5780601f1062000930576101008083540402835291602001916200095c565b820191906000526020600020905b8154815290600101906020018083116200093e57829003601f168201915b50505050508152505081526020019060010190620007d5565b50505050905090565b600281815481106200098f57600080fd5b60009182526020909120600690910201805460018201805491935090620009b6906200105d565b80601f0160208091040260200160405190810160405280929190818152602001828054620009e4906200105d565b801562000a355780601f1062000a095761010080835404028352916020019162000a35565b820191906000526020600020905b81548152906001019060200180831162000a1757829003601f168201915b5050505060028301546003840154600485015460058601805495966001600160a01b0394851696949093169450909262000a6f906200105d565b80601f016020809104026020016040519081016040528092919081815260200182805462000a9d906200105d565b801562000aee5780601f1062000ac25761010080835404028352916020019162000aee565b820191906000526020600020905b81548152906001019060200180831162000ad057829003601f168201915b5050505050905086565b8151602081840181018051600382529282019185019190912091905280548290811062000b2457600080fd5b90600052602060002001600091509150505481565b62000b4362000b7d565b6001600160a01b03811662000b6f57604051631e4fbdf760e01b8152600060048201526024016200027b565b62000b7a8162000bac565b50565b6000546001600160a01b031633146200049b5760405163118cdaa760e01b81523360048201526024016200027b565b600080546001600160a01b038381166001600160a01b0319831681178455604051919092169283917f8be0079c531659141344cd1fd0a4f28419497f9722a3daafe3b4186f6b6457e09190a35050565b612450806200122383390190565b634e487b7160e01b600052604160045260246000fd5b600082601f83011262000c3257600080fd5b813567ffffffffffffffff8082111562000c505762000c5062000c0a565b604051601f8301601f19908116603f0116810190828211818310171562000c7b5762000c7b62000c0a565b8160405283815286602085880101111562000c9557600080fd5b836020870160208301376000602085830101528094505050505092915050565b600080600080600060a0868803121562000cce57600080fd5b853567ffffffffffffffff8082111562000ce757600080fd5b62000cf589838a0162000c20565b9650602088013591508082111562000d0c57600080fd5b62000d1a89838a0162000c20565b9550604088013591508082111562000d3157600080fd5b5062000d408882890162000c20565b9350506060860135915060808601356003811062000d5d57600080fd5b809150509295509295909350565b60006020828403121562000d7e57600080fd5b813567ffffffffffffffff81111562000d9657600080fd5b62000da48482850162000c20565b949350505050565b60005b8381101562000dc957818101518382015260200162000daf565b50506000910152565b6000815180845262000dec81602086016020860162000dac565b601f01601f19169290920160200192915050565b60006020808301818452808551808352604092508286019150828160051b87010184880160005b8381101562000eb757603f19898403018552815160c08151855288820151818a87015262000e588287018262000dd2565b838a01516001600160a01b03908116888c0152606080860151909116908801526080808501519088015260a09384015187820394880194909452915062000ea29050818362000dd2565b96890196945050509086019060010162000e27565b509098975050505050505050565b60006020828403121562000ed857600080fd5b5035919050565b86815260c06020820152600062000efa60c083018862000dd2565b6001600160a01b038781166040850152861660608401526080830185905282810360a084015262000f2c818562000dd2565b9998505050505050505050565b6000806040838503121562000f4d57600080fd5b823567ffffffffffffffff81111562000f6557600080fd5b62000f738582860162000c20565b95602094909401359450505050565b60006020828403121562000f9557600080fd5b81356001600160a01b038116811462000fad57600080fd5b9392505050565b60006001820162000fd557634e487b7160e01b600052601160045260246000fd5b5060010190565b878152600060018060a01b03808916602084015260e060408401526200100660e084018962000dd2565b83810360608501526200101a818962000dd2565b925050856080840152600385106200104257634e487b7160e01b600052602160045260246000fd5b8460a084015280841660c08401525098975050505050505050565b600181811c908216806200107257607f821691505b6020821081036200109357634e487b7160e01b600052602260045260246000fd5b50919050565b601f821115620010e757600081815260208120601f850160051c81016020861015620010c25750805b601f850160051c820191505b81811015620010e357828155600101620010ce565b5050505b505050565b815167ffffffffffffffff81111562001109576200110962000c0a565b62001121816200111a84546200105d565b8462001099565b602080601f831160018114620011595760008415620011405750858301515b600019600386901b1c1916600185901b178555620010e3565b600085815260208120601f198616915b828110156200118a5788860151825594840194600190910190840162001169565b5085821015620011a95787850151600019600388901b60f8161c191681555b5050505050600190811b01905550565b60008251620011cd81846020870162000dac565b9190910192915050565b606081526000620011ec606083018662000dd2565b6020830194909452506001600160a01b0391909116604090910152919050565b634e487b7160e01b600052603260045260246000fdfe608060405260405162002450380380620024508339810160408190526200002691620002f6565b8060017f9b779b17422d0df92223018b32b4d1fa46e071723d6817e2486d003becc55f00556001600160a01b0381166200007b57604051631e4fbdf760e01b8152600060048201526024015b60405180910390fd5b6200008681620001bb565b50428311620000d85760405162461bcd60e51b815260206004820152601a60248201527f456e642074696d65206d75737420626520696e20667574757265000000000000604482015260640162000072565b6001879055600280546001600160a01b0319166001600160a01b038816179055600362000106868262000440565b50600462000115858262000440565b5060058390556007805483919060ff191660018360028111156200013d576200013d6200050c565b02179055506007805461ff00191690553415620001ae576200016160023462000538565b60088054600090620001759084906200055b565b9091555062000188905060023462000538565b62000194903462000577565b60098054600090620001a89084906200055b565b90915550505b505050505050506200058d565b600080546001600160a01b03838116610100818102610100600160a81b0319851617855560405193049190911692909183917f8be0079c531659141344cd1fd0a4f28419497f9722a3daafe3b4186f6b6457e091a35050565b80516001600160a01b03811681146200022c57600080fd5b919050565b634e487b7160e01b600052604160045260246000fd5b600082601f8301126200025957600080fd5b81516001600160401b038082111562000276576200027662000231565b604051601f8301601f19908116603f01168101908282118183101715620002a157620002a162000231565b81604052838152602092508683858801011115620002be57600080fd5b600091505b83821015620002e25785820183015181830184015290820190620002c3565b600093810190920192909252949350505050565b600080600080600080600060e0888a0312156200031257600080fd5b87519650620003246020890162000214565b60408901519096506001600160401b03808211156200034257600080fd5b620003508b838c0162000247565b965060608a01519150808211156200036757600080fd5b50620003768a828b0162000247565b9450506080880151925060a0880151600381106200039357600080fd5b9150620003a360c0890162000214565b905092959891949750929550565b600181811c90821680620003c657607f821691505b602082108103620003e757634e487b7160e01b600052602260045260246000fd5b50919050565b601f8211156200043b57600081815260208120601f850160051c81016020861015620004165750805b601f850160051c820191505b81811015620004375782815560010162000422565b5050505b505050565b81516001600160401b038111156200045c576200045c62000231565b62000474816200046d8454620003b1565b84620003ed565b602080601f831160018114620004ac5760008415620004935750858301515b600019600386901b1c1916600185901b17855562000437565b600085815260208120601f198616915b82811015620004dd57888601518255948401946001909101908401620004bc565b5085821015620004fc5787850151600019600388901b60f8161c191681555b5050505050600190811b01905550565b634e487b7160e01b600052602160045260246000fd5b634e487b7160e01b600052601160045260246000fd5b6000826200055657634e487b7160e01b600052601260045260246000fd5b500490565b8082018082111562000571576200057162000522565b92915050565b8181038181111562000571576200057162000522565b611eb3806200059d6000396000f3fe6080604052600436106101355760003560e01c80636a72cb26116100ab5780638da5cb5b1161006f5780638da5cb5b1461044157806396fdbb1314610477578063b1669f18146104a4578063b88a802f146104c4578063f1be1679146104d9578063f2fde38b146104fb57600080fd5b80636a72cb26146103935780636bfefd6b146103d5578063715018a6146103ea57806380f55605146103ff5780638456cb591461042c57600080fd5b806355f57510116100fd57806355f57510146101b6578063560d52d414610238578063569721d21461024d5780635b7c2dad146102775780635c975abb146103555780636540742f1461037857600080fd5b80631301c8b11461013a578063134f0584146101635780633f4ba83a1461017957806343046844146101905780634d04655e146101a3575b600080fd5b34801561014657600080fd5b50610150600e5481565b6040519081526020015b60405180910390f35b34801561016f57600080fd5b50610150600f5481565b34801561018557600080fd5b5061018e61051b565b005b61018e61019e366004611938565b61052d565b61018e6101b1366004611938565b6107e0565b3480156101c257600080fd5b5061020a6101d136600461195a565b600b602052600090815260409020805460018201546002909201546001600160a01b0382169260ff600160a01b90930483169290911684565b604080516001600160a01b03909516855260ff9093166020850152918301521515606082015260800161015a565b34801561024457600080fd5b50610150600281565b34801561025957600080fd5b50610262610a7b565b6040805192835260208301919091520161015a565b34801561028357600080fd5b5061031461029236600461195a565b604080516080810182526000808252602082018190529181018290526060810191909152506001600160a01b039081166000908152600b6020908152604091829020825160808101845281549485168152600160a01b90940460ff90811692850192909252600181015492840192909252600290910154161515606082015290565b60405161015a919081516001600160a01b0316815260208083015160ff16908201526040808301519082015260609182015115159181019190915260800190565b34801561036157600080fd5b5060005460ff16604051901515815260200161015a565b34801561038457600080fd5b50610150662386f26fc1000081565b34801561039f57600080fd5b506103c36103ae36600461195a565b600c6020526000908152604090205460ff1681565b60405160ff909116815260200161015a565b3480156103e157600080fd5b5061018e610ae4565b3480156103f657600080fd5b5061018e610c37565b34801561040b57600080fd5b50610414610c49565b60405161015a9c9b9a99989796959493929190611a03565b34801561043857600080fd5b5061018e610e43565b34801561044d57600080fd5b5060005461010090046001600160a01b03166040516001600160a01b03909116815260200161015a565b34801561048357600080fd5b5061015061049236600461195a565b600d6020526000908152604090205481565b3480156104b057600080fd5b5061018e6104bf366004611abe565b610e53565b3480156104d057600080fd5b5061018e610ff1565b3480156104e557600080fd5b506104ee611427565b60405161015a9190611b80565b34801561050757600080fd5b5061018e61051636600461195a565b6116bb565b6105236116f6565b61052b611729565b565b61053561177b565b61053d611797565b6000600754610100900460ff16600381111561055b5761055b6119c9565b1461059f5760405162461bcd60e51b815260206004820152600f60248201526e26b0b935b2ba103737ba1027a822a760891b60448201526064015b60405180910390fd5b60055442106105df5760405162461bcd60e51b815260206004820152600c60248201526b13585c9ad95d08195b99195960a21b6044820152606401610596565b662386f26fc100003410156106245760405162461bcd60e51b815260206004820152600b60248201526a42657420746f6f206c6f7760a81b6044820152606401610596565b8060ff166001148061063957508060ff166002145b6106745760405162461bcd60e51b815260206004820152600c60248201526b496e76616c6964207369646560a01b6044820152606401610596565b336000908152600b6020526040902060010154156106ef57336000908152600b602052604090205460ff828116600160a01b90920416146106ef5760405162461bcd60e51b815260206004820152601560248201527443616e6e6f742062657420626f746820736964657360581b6044820152606401610596565b336000818152600b6020526040812080546001600160a81b03191660ff60a01b1990931692909217600160a01b60ff85160217825560019091018054349290610739908490611c8b565b909155505060ff811660010361076957346001600701600082825461075e9190611c8b565b909155506107849050565b346001600801600082825461077e9190611c8b565b90915550505b6001546040805160ff841681523460208201523392917f4f1eed5e863a822b0f9eb960dfdab2cc5a99beec4b191f2a7a9c7e28e5a1552491015b60405180910390a36107dd6001600080516020611e5e83398151915255565b50565b6107e861177b565b6107f0611797565b600060075460ff166002811115610809576108096119c9565b146108565760405162461bcd60e51b815260206004820152601860248201527f4e6f7420636f6d6d756e697479207265736f6c7574696f6e00000000000000006044820152606401610596565b60055442101561089b5760405162461bcd60e51b815260206004820152601060248201526f13585c9ad95d081b9bdd08195b99195960821b6044820152606401610596565b6000600754610100900460ff1660038111156108b9576108b96119c9565b14806108e057506001600754610100900460ff1660038111156108de576108de6119c9565b145b61091e5760405162461bcd60e51b815260206004820152600f60248201526e13585c9ad95d081c995cdbdb1d9959608a1b6044820152606401610596565b8060ff166001148061093357508060ff166002145b61096e5760405162461bcd60e51b815260206004820152600c60248201526b496e76616c696420766f746560a01b6044820152606401610596565b600034116109b35760405162461bcd60e51b81526020600482015260126024820152714d757374207374616b6520746f20766f746560701b6044820152606401610596565b6007805461ff001916610100179055336000908152600c60209081526040808320805460ff191660ff8616179055600d909152812080543492906109f8908490611c8b565b909155505060ff8116600103610a255734600e6000828254610a1a9190611c8b565b90915550610a3d9050565b34600f6000828254610a379190611c8b565b90915550505b6001546040805160ff841681523460208201523392917f1acd2c18dd1edb6ca52b53ba8e18e3826d360481236063b2aa069b6315fe6f7691016107be565b60095460085460009182918291610a9191611c8b565b905080600003610aa657506032928392509050565b6008548190610ab6906064611ca4565b610ac09190611cbb565b6009549093508190610ad3906064611ca4565b610add9190611cbb565b9150509091565b6002546001600160a01b0316331480610b1e575060005461010090046001600160a01b03166001600160a01b0316336001600160a01b0316145b610b5b5760405162461bcd60e51b815260206004820152600e60248201526d139bdd08185d5d1a1bdc9a5e995960921b6044820152606401610596565b6000600754610100900460ff166003811115610b7957610b796119c9565b14610bb15760405162461bcd60e51b81526020600482015260086024820152672737ba1027a822a760c11b6044820152606401610596565b600854158015610bc15750600954155b610bfa5760405162461bcd60e51b815260206004820152600a60248201526910995d1cc8195e1a5cdd60b21b6044820152606401610596565b6007805461ff0019166103001790556001546040517f2ca440fb7fca85d7f55d395a4abd94817330b83a62f3502efbb4770144e4ca9790600090a2565b610c3f6116f6565b61052b60006117bb565b600180546002546003805492936001600160a01b0390921692610c6b90611cdd565b80601f0160208091040260200160405190810160405280929190818152602001828054610c9790611cdd565b8015610ce45780601f10610cb957610100808354040283529160200191610ce4565b820191906000526020600020905b815481529060010190602001808311610cc757829003601f168201915b505050505090806003018054610cf990611cdd565b80601f0160208091040260200160405190810160405280929190818152602001828054610d2590611cdd565b8015610d725780601f10610d4757610100808354040283529160200191610d72565b820191906000526020600020905b815481529060010190602001808311610d5557829003601f168201915b505050600484015460058501546006860154600787015460088801546009890180549899959894975060ff8085169750610100850481169662010000909504169492939192610dc090611cdd565b80601f0160208091040260200160405190810160405280929190818152602001828054610dec90611cdd565b8015610e395780601f10610e0e57610100808354040283529160200191610e39565b820191906000526020600020905b815481529060010190602001808311610e1c57829003601f168201915b505050505090508c565b610e4b6116f6565b61052b611814565b610e5b6116f6565b6000600754610100900460ff166003811115610e7957610e796119c9565b1480610ea057506001600754610100900460ff166003811115610e9e57610e9e6119c9565b145b610edd5760405162461bcd60e51b815260206004820152600e60248201526d496e76616c69642073746174757360901b6044820152606401610596565b600554421015610f225760405162461bcd60e51b815260206004820152601060248201526f13585c9ad95d081b9bdd08195b99195960821b6044820152606401610596565b8160ff1660011480610f3757508160ff166002145b80610f4557508160ff166003145b610f835760405162461bcd60e51b815260206004820152600f60248201526e496e76616c6964206f7574636f6d6560881b6044820152606401610596565b6007805460ff8416620100000262ffff00199091161761020017905542600655600a610faf8282611d66565b506001546040517f755280b6fd2e837dcfce7038b2668dbe9e358bd91d53b47e15442a9bdd0943d990610fe59085908590611e26565b60405180910390a25050565b610ff961177b565b611001611797565b6002600754610100900460ff16600381111561101f5761101f6119c9565b148061104657506003600754610100900460ff166003811115611044576110446119c9565b145b61108a5760405162461bcd60e51b81526020600482015260156024820152744d61726b6574206e6f74207265736f6c7661626c6560581b6044820152606401610596565b336000908152600b6020526040902060018101546110d35760405162461bcd60e51b8152602060048201526006602482015265139bc818995d60d21b6044820152606401610596565b600281015460ff16156111195760405162461bcd60e51b815260206004820152600e60248201526d14995dd85c990818db185a5b595960921b6044820152606401610596565b60006003600754610100900460ff166003811115611139576111396119c9565b1480611150575060075462010000900460ff166003145b1561116057506001810154611334565b6007548254600160a01b900460ff9081166201000090920416146111b45760405162461bcd60e51b815260206004820152600b60248201526a2234b2103737ba103bb4b760a91b6044820152606401610596565b60075460009060ff62010000909104166001146111d3576009546111d7565b6008545b60075490915060009060ff62010000909104166001146111f9576008546111fd565b6009545b90506000828560010154670de0b6b3a764000061121a9190611ca4565b6112249190611cbb565b90506000670de0b6b3a764000061123b8385611ca4565b6112459190611cbb565b86600101546112549190611c8b565b905060006064611265600284611ca4565b61126f9190611cbb565b905061127b8183611e4a565b955060006112976000546001600160a01b036101009091041690565b6001600160a01b03168260405160006040518083038185875af1925050503d80600081146112e1576040519150601f19603f3d011682016040523d82523d6000602084013e6112e6565b606091505b505090508061132d5760405162461bcd60e51b8152602060048201526013602482015272119959481d1c985b9cd9995c8819985a5b1959606a1b6044820152606401610596565b5050505050505b60028201805460ff19166001179055604051600090339083908381818185875af1925050503d8060008114611385576040519150601f19603f3d011682016040523d82523d6000602084013e61138a565b606091505b50509050806113d45760405162461bcd60e51b815260206004820152601660248201527514185e5bdd5d081d1c985b9cd9995c8819985a5b195960521b6044820152606401610596565b6001546040518381523391907f24b5efa61dd1cfc659205a97fb8ed868f3cb8c81922bab2b96423e5de1de2cb79060200160405180910390a350505061052b6001600080516020611e5e83398151915255565b61142f6118a4565b60408051610180810182526001805482526002546001600160a01b0316602083015260038054929391929184019161146690611cdd565b80601f016020809104026020016040519081016040528092919081815260200182805461149290611cdd565b80156114df5780601f106114b4576101008083540402835291602001916114df565b820191906000526020600020905b8154815290600101906020018083116114c257829003601f168201915b505050505081526020016003820180546114f890611cdd565b80601f016020809104026020016040519081016040528092919081815260200182805461152490611cdd565b80156115715780601f1061154657610100808354040283529160200191611571565b820191906000526020600020905b81548152906001019060200180831161155457829003601f168201915b50505091835250506004820154602082015260058201546040820152600682015460609091019060ff1660028111156115ac576115ac6119c9565b60028111156115bd576115bd6119c9565b81526020016006820160019054906101000a900460ff1660038111156115e5576115e56119c9565b60038111156115f6576115f66119c9565b8152600682015462010000900460ff166020820152600782015460408201526008820154606082015260098201805460809092019161163490611cdd565b80601f016020809104026020016040519081016040528092919081815260200182805461166090611cdd565b80156116ad5780601f10611682576101008083540402835291602001916116ad565b820191906000526020600020905b81548152906001019060200180831161169057829003601f168201915b505050505081525050905090565b6116c36116f6565b6001600160a01b0381166116ed57604051631e4fbdf760e01b815260006004820152602401610596565b6107dd816117bb565b6000546001600160a01b0361010090910416331461052b5760405163118cdaa760e01b8152336004820152602401610596565b611731611851565b6000805460ff191690557f5db9ee0a495bf2e6ff9c91a7834c1ba4fdd244a5e8aa4e537bd38aeae4b073aa335b6040516001600160a01b03909116815260200160405180910390a1565b611783611874565b6002600080516020611e5e83398151915255565b60005460ff161561052b5760405163d93c066560e01b815260040160405180910390fd5b600080546001600160a01b03838116610100818102610100600160a81b0319851617855560405193049190911692909183917f8be0079c531659141344cd1fd0a4f28419497f9722a3daafe3b4186f6b6457e091a35050565b61181c611797565b6000805460ff191660011790557f62e78cea01bee320cd4e420270b5ea74000d11b0c9f74754ebdbfc544b05a25861175e3390565b60005460ff1661052b57604051638dfc202b60e01b815260040160405180910390fd5b600080516020611e5e8339815191525460020361052b57604051633ee5aeb560e01b815260040160405180910390fd5b6040518061018001604052806000815260200160006001600160a01b0316815260200160608152602001606081526020016000815260200160008152602001600060028111156118f6576118f66119c9565b815260200160008152602001600060ff1681526020016000815260200160008152602001606081525090565b803560ff8116811461193357600080fd5b919050565b60006020828403121561194a57600080fd5b61195382611922565b9392505050565b60006020828403121561196c57600080fd5b81356001600160a01b038116811461195357600080fd5b6000815180845260005b818110156119a95760208185018101518683018201520161198d565b506000602082860101526020601f19601f83011685010191505092915050565b634e487b7160e01b600052602160045260246000fd5b600381106119ef576119ef6119c9565b9052565b600481106119ef576119ef6119c9565b8c81526001600160a01b038c16602082015261018060408201819052600090611a2e8382018e611983565b90508281036060840152611a42818d611983565b90508a60808401528960a0840152611a5d60c084018a6119df565b611a6a60e08401896119f3565b60ff87166101008401528561012084015284610140840152828103610160840152611a958185611983565b9f9e505050505050505050505050505050565b634e487b7160e01b600052604160045260246000fd5b60008060408385031215611ad157600080fd5b611ada83611922565b9150602083013567ffffffffffffffff80821115611af757600080fd5b818501915085601f830112611b0b57600080fd5b813581811115611b1d57611b1d611aa8565b604051601f8201601f19908116603f01168101908382118183101715611b4557611b45611aa8565b81604052828152886020848701011115611b5e57600080fd5b8260208601602083013760006020848301015280955050505050509250929050565b602081528151602082015260006020830151611ba760408401826001600160a01b03169052565b506040830151610180806060850152611bc46101a0850183611983565b91506060850151601f1980868503016080870152611be28483611983565b9350608087015160a087015260a087015160c087015260c08701519150611c0c60e08701836119df565b60e08701519150610100611c22818801846119f3565b8701519150610120611c388782018460ff169052565b8701516101408781019190915287015161016080880191909152870151868503909101838701529050611c6b8382611983565b9695505050505050565b634e487b7160e01b600052601160045260246000fd5b80820180821115611c9e57611c9e611c75565b92915050565b8082028115828204841417611c9e57611c9e611c75565b600082611cd857634e487b7160e01b600052601260045260246000fd5b500490565b600181811c90821680611cf157607f821691505b602082108103611d1157634e487b7160e01b600052602260045260246000fd5b50919050565b601f821115611d6157600081815260208120601f850160051c81016020861015611d3e5750805b601f850160051c820191505b81811015611d5d57828155600101611d4a565b5050505b505050565b815167ffffffffffffffff811115611d8057611d80611aa8565b611d9481611d8e8454611cdd565b84611d17565b602080601f831160018114611dc95760008415611db15750858301515b600019600386901b1c1916600185901b178555611d5d565b600085815260208120601f198616915b82811015611df857888601518255948401946001909101908401611dd9565b5085821015611e165787850151600019600388901b60f8161c191681555b5050505050600190811b01905550565b60ff83168152604060208201526000611e426040830184611983565b949350505050565b81810381811115611c9e57611c9e611c7556fe9b779b17422d0df92223018b32b4d1fa46e071723d6817e2486d003becc55f00a264697066735822122008d4a5d8a8196d7f9d18a8fe69fbe0b019f9538d25811f426264e4dd523f76eb64736f6c63430008140033a26469706673582212206287143e044fc165371b670270a6e355f60288c5415c1da29d226e6273499c7d64736f6c63430008140033",
  "linkReferences": {},
  "deployedLinkReferences": {}
}