{
  "_format": "hh-sol-artifact-1",
  "contractName": "YieldVaultMock",
  "sourceName": "contracts/experimental/YieldVaultMock.sol",
  "abi": [
    {
      "inputs": [],
      "stateMutability": "nonpayable",
      "type": "constructor"
    },
    {
      "inputs": [
        {
          "internalType": "address",
          "name": "owner",
          "type": "address"
        }
      ],
      "name": "OwnableInvalidOwner",
      "type": "error"
    },
    {
      "inputs": [
        {
          "internalType": "address",
          "name": "account",
          "type": "address"
        }
      ],
      "name": "OwnableUnauthorizedAccount",
      "type": "error"
    },
    {
      "anonymous": false,
      "inputs": [
        {
          "indexed": true,
          "internalType": "address",
          "name": "user",
          "type": "address"
        },
        {
          "indexed": false,
          "internalType": "uint256",
          "name": "amount",
          "type": "uint256"
        }
      ],
      "name": "Deposited",
      "type": "event"
    },
    {
      "anonymous": false,
      "inputs": [
        {
          "indexed": true,
          "internalType": "address",
          "name": "previousOwner",
          "type": "address"
        },
        {
          "indexed": true,
          "internalType": "address",
          "name": "newOwner",
          "type": "address"
        }
      ],
      "name": "OwnershipTransferred",
      "type": "event"
    },
    {
      "anonymous": false,
      "inputs": [
        {
          "indexed": true,
          "internalType": "address",
          "name": "user",
          "type": "address"
        },
        {
          "indexed": false,
          "internalType": "uint256",
          "name": "principal",
          "type": "uint256"
        },
        {
          "indexed": false,
          "internalType": "uint256",
          "name": "yield",
          "type": "uint256"
        }
      ],
      "name": "Withdrawn",
      "type": "event"
    },
    {
      "anonymous": false,
      "inputs": [
        {
          "indexed": false,
          "internalType": "uint256",
          "name": "totalYieldGenerated",
          "type": "uint256"
        }
      ],
      "name": "YieldAccrued",
      "type": "event"
    },
    {
      "inputs": [],
      "name": "MOCK_APY_BASIS_POINTS",
      "outputs": [
        {
          "internalType": "uint256",
          "name": "",
          "type": "uint256"
        }
      ],
      "stateMutability": "view",
      "type": "function"
    },
    {
      "inputs": [],
      "name": "deposit",
      "outputs": [],
      "stateMutability": "payable",
      "type": "function"
    },
    {
      "inputs": [
        {
          "internalType": "address",
          "name": "",
          "type": "address"
        }
      ],
      "name": "deposits",
      "outputs": [
        {
          "internalType": "uint256",
          "name": "",
          "type": "uint256"
        }
      ],
      "stateMutability": "view",
      "type": "function"
    },
    {
      "inputs": [],
      "name": "lastAccrualTimestamp",
      "outputs": [
        {
          "internalType": "uint256",
          "name": "",
          "type": "uint256"
        }
      ],
      "stateMutability": "view",
      "type": "function"
    },
    {
      "inputs": [],
      "name": "owner",
      "outputs": [
        {
          "internalType": "address",
          "name": "",
          "type": "address"
        }
      ],
      "stateMutability": "view",
      "type": "function"
    },
    {
      "inputs": [],
      "name": "renounceOwnership",
      "outputs": [],
      "stateMutability": "nonpayable",
      "type": "function"
    },
    {
      "inputs": [],
      "name": "seedYield",
      "outputs": [],
      "stateMutability": "payable",
      "type": "function"
    },
    {
      "inputs": [
        {
          "internalType": "address",
          "name": "newOwner",
          "type": "address"
        }
      ],
      "name": "transferOwnership",
      "outputs": [],
      "stateMutability": "nonpayable",
      "type": "function"
    },
    {
      "inputs": [
        {
          "internalType": "uint256",
          "name": "amount",
          "type": "uint256"
        }
      ],
      "name": "withdrawWithYield",
      "outputs": [],
      "stateMutability": "nonpayable",
      "type": "function"
    },
    {
      "stateMutability": "payable",
      "type": "receive"
    }
  ],
  "bytecode": "0x608060405234801561001057600080fd5b50338061003757604051631e4fbdf760e01b81526000600482015260240160405180910390fd5b6100408161004a565b504260025561009a565b600080546001600160a01b038381166001600160a01b0319831681178455604051919092169283917f8be0079c531659141344cd1fd0a4f28419497f9722a3daafe3b4186f6b6457e09190a35050565b6105e1806100a96000396000f3fe60806040526004361061008a5760003560e01c8063a0c4660d11610059578063a0c4660d14610124578063c0789dcb1461012c578063d0e30db014610142578063f2fde38b1461014a578063fc7e286d1461016a57600080fd5b8063715018a61461009e578063838c2b48146100b35780638da5cb5b146100dc57806392631d7f1461010457600080fd5b3661009957610097610197565b005b600080fd5b3480156100aa57600080fd5b5061009761023a565b3480156100bf57600080fd5b506100c96104d881565b6040519081526020015b60405180910390f35b3480156100e857600080fd5b506000546040516001600160a01b0390911681526020016100d3565b34801561011057600080fd5b5061009761011f3660046104e7565b61024e565b6100976103ef565b34801561013857600080fd5b506100c960025481565b610097610197565b34801561015657600080fd5b50610097610165366004610500565b61042c565b34801561017657600080fd5b506100c9610185366004610500565b60016020526000908152604090205481565b600034116101df5760405162461bcd60e51b815260206004820152601060248201526f4d757374206465706f7369742053484d60801b60448201526064015b60405180910390fd5b33600090815260016020526040812080543492906101fe908490610546565b909155505060405134815233907f2da466a7b24304f47e87fa2e1e5a81b9831ce54fec19055ce277ca2f39ba42c49060200160405180910390a2565b61024261046a565b61024c6000610497565b565b336000908152600160205260409020548111156102a45760405162461bcd60e51b8152602060048201526014602482015273125b9cdd59999a58da595b9d0819195c1bdcda5d60621b60448201526064016101d6565b6000600254426102b4919061055f565b9050600064496cebb800826102cb6104d886610572565b6102d59190610572565b6102df9190610589565b905060006102ed8285610546565b3360009081526001602052604081208054929350869290919061031190849061055f565b9091555060009050334783116103275782610329565b475b604051600081818185875af1925050503d8060008114610365576040519150601f19603f3d011682016040523d82523d6000602084013e61036a565b606091505b50509050806103ad5760405162461bcd60e51b815260206004820152600f60248201526e151c985b9cd9995c8819985a5b1959608a1b60448201526064016101d6565b604080518681526020810185905233917f92ccf450a286a957af52509bc1c9939d1a6a481783e142e41e2499f0bb66ebc6910160405180910390a25050505050565b6103f761046a565b6040513481527f3b6bc0ba304eaa17cdca1b053baac859e721c7a775cddefc825f6286641311fc9060200160405180910390a1565b61043461046a565b6001600160a01b03811661045e57604051631e4fbdf760e01b8152600060048201526024016101d6565b61046781610497565b50565b6000546001600160a01b0316331461024c5760405163118cdaa760e01b81523360048201526024016101d6565b600080546001600160a01b038381166001600160a01b0319831681178455604051919092169283917f8be0079c531659141344cd1fd0a4f28419497f9722a3daafe3b4186f6b6457e09190a35050565b6000602082840312156104f957600080fd5b5035919050565b60006020828403121561051257600080fd5b81356001600160a01b038116811461052957600080fd5b9392505050565b634e487b7160e01b600052601160045260246000fd5b8082018082111561055957610559610530565b92915050565b8181038181111561055957610559610530565b808202811582820484141761055957610559610530565b6000826105a657634e487b7160e01b600052601260045260246000fd5b50049056fea26469706673582212206b7013df0784a28d8167238707eac1b489a214e08c5d972df8ddc9f89c7c42dc64736f6c63430008140033",
  "linkReferences": {},
  "deployedLinkReferences": {}
}