{
  "_format": "hh-sol-artifact-1",
  "contractName": "SyndicateMock",
  "sourceName": "contracts/experimental/SyndicateMock.sol",
  "abi": [
    {
      "inputs": [
        {
          "internalType": "address",
          "name": "_leadTrader",
          "type": "address"
        }
      ],
      "stateMutability": "nonpayable",
      "type": "constructor"
    },
    {
      "inputs": [
        {
          "internalType": "address",
          "name": "owner",
          "type": "address"
        }
      ],
      "name": "OwnableInvalidOwner",
      "type": "error"
    },
    {
      "inputs": [
        {
          "internalType": "address",
          "name": "account",
          "type": "address"
        }
      ],
      "name": "OwnableUnauthorizedAccount",
      "type": "error"
    },
    {
      "anonymous": false,
      "inputs": [
        {
          "indexed": true,
          "internalType": "address",
          "name": "user",
          "type": "address"
        },
        {
          "indexed": false,
          "internalType": "uint256",
          "name": "amount",
          "type": "uint256"
        }
      ],
      "name": "Deposited",
      "type": "event"
    },
    {
      "anonymous": false,
      "inputs": [
        {
          "indexed": true,
          "internalType": "address",
          "name": "previousOwner",
          "type": "address"
        },
        {
          "indexed": true,
          "internalType": "address",
          "name": "newOwner",
          "type": "address"
        }
      ],
      "name": "OwnershipTransferred",
      "type": "event"
    },
    {
      "anonymous": false,
      "inputs": [
        {
          "indexed": true,
          "internalType": "address",
          "name": "market",
          "type": "address"
        },
        {
          "indexed": false,
          "internalType": "uint256",
          "name": "totalAmount",
          "type": "uint256"
        },
        {
          "indexed": false,
          "internalType": "uint8",
          "name": "outcome",
          "type": "uint8"
        }
      ],
      "name": "TradeMirrored",
      "type": "event"
    },
    {
      "anonymous": false,
      "inputs": [
        {
          "indexed": true,
          "internalType": "address",
          "name": "user",
          "type": "address"
        },
        {
          "indexed": false,
          "internalType": "uint256",
          "name": "amount",
          "type": "uint256"
        }
      ],
      "name": "Withdrawn",
      "type": "event"
    },
    {
      "inputs": [],
      "name": "deposit",
      "outputs": [],
      "stateMutability": "payable",
      "type": "function"
    },
    {
      "inputs": [
        {
          "internalType": "address",
          "name": "",
          "type": "address"
        }
      ],
      "name": "deposits",
      "outputs": [
        {
          "internalType": "uint256",
          "name": "",
          "type": "uint256"
        }
      ],
      "stateMutability": "view",
      "type": "function"
    },
    {
      "inputs": [],
      "name": "leadTrader",
      "outputs": [
        {
          "internalType": "address",
          "name": "",
          "type": "address"
        }
      ],
      "stateMutability": "view",
      "type": "function"
    },
    {
      "inputs": [
        {
          "internalType": "address",
          "name": "predictionMarket",
          "type": "address"
        },
        {
          "internalType": "uint8",
          "name": "outcome",
          "type": "uint8"
        }
      ],
      "name": "mirrorTrade",
      "outputs": [],
      "stateMutability": "nonpayable",
      "type": "function"
    },
    {
      "inputs": [],
      "name": "owner",
      "outputs": [
        {
          "internalType": "address",
          "name": "",
          "type": "address"
        }
      ],
      "stateMutability": "view",
      "type": "function"
    },
    {
      "inputs": [],
      "name": "performanceFeeBps",
      "outputs": [
        {
          "internalType": "uint256",
          "name": "",
          "type": "uint256"
        }
      ],
      "stateMutability": "view",
      "type": "function"
    },
    {
      "inputs": [],
      "name": "renounceOwnership",
      "outputs": [],
      "stateMutability": "nonpayable",
      "type": "function"
    },
    {
      "inputs": [
        {
          "internalType": "address",
          "name": "newOwner",
          "type": "address"
        }
      ],
      "name": "transferOwnership",
      "outputs": [],
      "stateMutability": "nonpayable",
      "type": "function"
    },
    {
      "inputs": [
        {
          "internalType": "uint256",
          "name": "amount",
          "type": "uint256"
        }
      ],
      "name": "withdraw",
      "outputs": [],
      "stateMutability": "nonpayable",
      "type": "function"
    },
    {
      "stateMutability": "payable",
      "type": "receive"
    }
  ],
  "bytecode": "0x60806040526101f460035534801561001657600080fd5b5060405161073e38038061073e833981016040819052610035916100da565b338061005b57604051631e4fbdf760e01b81526000600482015260240160405180910390fd5b6100648161008a565b50600280546001600160a01b0319166001600160a01b039290921691909117905561010a565b600080546001600160a01b038381166001600160a01b0319831681178455604051919092169283917f8be0079c531659141344cd1fd0a4f28419497f9722a3daafe3b4186f6b6457e09190a35050565b6000602082840312156100ec57600080fd5b81516001600160a01b038116811461010357600080fd5b9392505050565b610625806101196000396000f3fe60806040526004361061008a5760003560e01c8063bcdf0d9411610059578063bcdf0d941461012e578063d0e30db01461014e578063f2fde38b14610156578063fb87c0e914610176578063fc7e286d1461019657600080fd5b80632e1a7d4d1461009e578063715018a6146100be5780638da5cb5b146100d3578063b9d4e8791461010a57600080fd5b36610099576100976101c3565b005b600080fd5b3480156100aa57600080fd5b506100976100b9366004610519565b610266565b3480156100ca57600080fd5b506100976103a3565b3480156100df57600080fd5b506000546001600160a01b03165b6040516001600160a01b0390911681526020015b60405180910390f35b34801561011657600080fd5b5061012060035481565b604051908152602001610101565b34801561013a57600080fd5b5061009761014936600461054e565b6103b7565b6100976101c3565b34801561016257600080fd5b5061009761017136600461058b565b61045e565b34801561018257600080fd5b506002546100ed906001600160a01b031681565b3480156101a257600080fd5b506101206101b136600461058b565b60016020526000908152604090205481565b6000341161020b5760405162461bcd60e51b815260206004820152601060248201526f4d757374206465706f7369742053484d60801b60448201526064015b60405180910390fd5b336000908152600160205260408120805434929061022a9084906105c3565b909155505060405134815233907f2da466a7b24304f47e87fa2e1e5a81b9831ce54fec19055ce277ca2f39ba42c49060200160405180910390a2565b336000908152600160205260409020548111156102bc5760405162461bcd60e51b8152602060048201526014602482015273125b9cdd59999a58da595b9d0819195c1bdcda5d60621b6044820152606401610202565b33600090815260016020526040812080548392906102db9084906105dc565b9091555050604051600090339083908381818185875af1925050503d8060008114610322576040519150601f19603f3d011682016040523d82523d6000602084013e610327565b606091505b505090508061036a5760405162461bcd60e51b815260206004820152600f60248201526e151c985b9cd9995c8819985a5b1959608a1b6044820152606401610202565b60405182815233907f7084f5476618d8e60b11ef0d7d3f06914655adb8793e28ff7f018d4c76d505d59060200160405180910390a25050565b6103ab61049c565b6103b560006104c9565b565b6002546001600160a01b031633146104115760405162461bcd60e51b815260206004820152601c60248201527f4f6e6c79206c656164207472616465722063616e2065786563757465000000006044820152606401610202565b604080514780825260ff84166020830152916001600160a01b038516917f0a86b98439f292ee748ff2e1bb9fbbacf0090a21cc3cac90891ec71ccac5f293910160405180910390a2505050565b61046661049c565b6001600160a01b03811661049057604051631e4fbdf760e01b815260006004820152602401610202565b610499816104c9565b50565b6000546001600160a01b031633146103b55760405163118cdaa760e01b8152336004820152602401610202565b600080546001600160a01b038381166001600160a01b0319831681178455604051919092169283917f8be0079c531659141344cd1fd0a4f28419497f9722a3daafe3b4186f6b6457e09190a35050565b60006020828403121561052b57600080fd5b5035919050565b80356001600160a01b038116811461054957600080fd5b919050565b6000806040838503121561056157600080fd5b61056a83610532565b9150602083013560ff8116811461058057600080fd5b809150509250929050565b60006020828403121561059d57600080fd5b6105a682610532565b9392505050565b634e487b7160e01b600052601160045260246000fd5b808201808211156105d6576105d66105ad565b92915050565b818103818111156105d6576105d66105ad56fea26469706673582212204fece85281116c89ceb9a7cdaeda42a056f34530c53a8017d1ecac625582f45664736f6c63430008140033",
  "linkReferences": {},
  "deployedLinkReferences": {}
}